:100000000C94AA000C94D2000C94D2000C94D20050
:100010000C94D2000C94D2000C94D2000C94D20018
:100020000C94D2000C94D2000C94D2000C94D20008
:100030000C94D2000C94D2000C94D2000C94D200F8
:100040000C94DF050C94D2000C944F060C942906F6
:100050000C94D2000C94D2000C94D2000C94D200D8
:100060000C9481060C94D200416E616C6F67207213
:1000700065666572656E63652044454641554C541E
:1000800000416E616C6F67207265666572656E63B4
:100090006520494E5445524E414C00494E505554EE
:1000A0002050554C4C55500050696E2000494E5020
:1000B00055540050696E2000204F5554505554003F
:1000C00050696E200020416E616C6F672077726905
:1000D0007465200050696E2000204C4F5700204866
:1000E0004947480050696E200000000000240027A6
:1000F000002A0000000000250028002B000000005E
:10010000002300260029000404040404040404025B
:1001100002020202020303030303030102040810A4
:100120002040800102040810200102040810200071
:1001300000000800020100000304070000000000A6
:1001400000000057697265206F6B00496E6974206A
:100150000000A00711241FBECFEFD8E0DEBFCDBF47
:1001600011E0A0E0B1E0E6EAF1E102C005900D92F5
:10017000AA32B107D9F722E0AAE2B1E001C01D928C
:10018000A537B207E1F710E0CAEAD0E004C0219732
:10019000FE010E94CB08C93AD107C9F70E94D907CE
:1001A0000C94D1080C940000E091BF01F091C001C3
:1001B000309729F01092BC011092BB010994089568
:1001C000CF93DF93AC01E091C101F091C201309770
:1001D000F1F09091BE018091BD019817C0F090E0C0
:1001E000292F30E02617370754F4D901A35DBE4FFD
:1001F000240F351FE90128812C939F5FF1CF1092C6
:10020000BE016093BD01CB01DF91CF910994DF91D5
:10021000CF910895AF92BF92CF92DF92EF92FF926B
:100220000F931F93CF93DF936C017B018B01040F1E
:10023000151FEB015E01AE18BF08C017D10759F0BA
:100240006991D601ED91FC910190F081E02DC601FC
:100250000995892B79F7C501DF91CF911F910F91F6
:10026000FF90EF90DF90CF90BF90AF900895FC018A
:10027000538D448D252F30E0842F90E0821B930B0B
:10028000541710F0CF96089501970895FC01918DB1
:10029000828D981761F0A28DAE0FBF2FB11D5D96B4
:1002A0008C91928D9F5F9F73928F90E008958FEF56
:1002B0009FEF0895FC01918D828D981731F0828D0A
:1002C000E80FF11D858D90E008958FEF9FEF089561
:1002D000FC01918D228D892F90E0805C9F4F821BC5
:1002E00091098F73992708958CEC91E00E94680121
:1002F00021E0892B09F420E0822F089580E090E02E
:10030000892B29F00E94740181110C94000008953A
:10031000FC01A48DA80FB92FB11DA35ABF4F2C917A
:10032000848D90E001968F739927848FA689B78971
:100330002C93A089B1898C91837080648C93938D68
:10034000848D981306C00288F389E02D80818F7D0B
:1003500080830895EF92FF920F931F93CF93DF93C3
:10036000EC0181E0888F9B8D8C8D98131AC0E889F1
:10037000F989808185FF15C09FB7F894EE89FF89C0
:100380006083E889F98980818370806480839FBF5E
:1003900081E090E0DF91CF911F910F91FF90EF905E
:1003A0000895F62E0B8D10E00F5F1F4F0F7311276E
:1003B000E02E8C8D8E110CC00FB607FCFACFE889A9
:1003C000F989808185FFF5CFCE010E948801F1CFA8
:1003D000EB8DEC0FFD2FF11DE35AFF4FF0829FB71D
:1003E000F8940B8FEA89FB8980818062CFCF0F93CD
:1003F0001F93CF93DF938C01D0E0C0E0F801EC0FA6
:10040000FD1F6491662341F08CEC91E00E94AA01EB
:10041000892B11F02196F2CFCE01DF91CF911F9160
:100420000F910895CF93DF93EC01888D8823B9F065
:10043000AA89BB89E889F9898C9185FD03C08081EF
:1004400086FD0DC00FB607FCF7CF8C9185FFF2CF6C
:10045000808185FFEDCFCE010E948801E9CFDF9139
:10046000CF910895833081F028F4813099F0823063
:10047000A9F008958730A9F08830C9F08430B1F42C
:10048000809180008F7D03C0809180008F77809362
:100490008000089584B58F7784BD089584B58F7DDD
:1004A000FBCF8091B0008F778093B000089580914A
:1004B000B0008F7DF9CFCF93DF93282F30E0F90183
:1004C000E15DFE4F8491F901E55EFE4FD491F901A3
:1004D000E95FFE4FC491CC23A1F081110E9432024A
:1004E000EC2FF0E0EE0FFF1FE350FF4FA591B4910A
:1004F000EC91ED2381E090E009F480E0DF91CF9171
:10050000089580E090E0FACF1F93CF93DF93282FD8
:1005100030E0F901E15DFE4F8491F901E55EFE4FA7
:10052000D491F901E95FFE4FC491CC23A9F0162FB5
:1005300081110E943202EC2FF0E0EE0FFF1FED5010
:10054000FF4FA591B4918FB7F894EC91111108C0A9
:10055000D095DE23DC938FBFDF91CF911F9108955B
:10056000DE2BF8CFCF93DF9390E0FC01E55EFE4FEA
:100570002491895F9E4FFC0184918823C9F090E00B
:10058000880F991FFC01E751FF4FA591B491FC0121
:10059000ED50FF4FC591D49161110DC09FB7F894F4
:1005A0008C91209582238C938881282328839FBF58
:1005B000DF91CF910895623051F49FB7F8943C9148
:1005C000822F809583238C93E8812E2BEFCF8FB7DA
:1005D000F894EC912E2B2C938FBFEACF85ED80936E
:1005E000BC008091BC0084FDFCCF1092BA0108953C
:1005F00020916D01260F3327331F21323105ECF492
:100600002091BA01FC0190E080E0243069F082E0A2
:100610000895A0916D012191AC01435B5E4FA40F41
:10062000B52FB11D2C930196861798F380916D011B
:10063000680F60936D0180E0089581E0089508954A
:10064000E091BE018091BD01E81730F4F0E0E35D78
:10065000FE4F808190E008958FEF9FEF0895909175
:10066000BE018091BD012FEF3FEF981748F4E92FAD
:10067000F0E0E35DFE4F208130E09F5F9093BE018C
:10068000C90108958091BD019091BE01891B990B0C
:100690000895CF93DF93CB01EA01642F0E94F80203
:1006A000CE01DF91CF9108954091000150E06AE2C0
:1006B00071E089E692E00C944903CF93DF931F9297
:1006C000CDB7DEB7698361E0CE0101960E94F802E2
:1006D00081E090E00F90DF91CF91089590E080E06D
:1006E00008958F929F92AF92BF920F931F93CF93D3
:1006F000DF93CDB7DEB7A1970FB6F894DEBF0FBE7C
:10070000CDBF19A2423008F44AE08E010F5D1F4FA1
:10071000842E912CB12CA12CA50194010E94A90832
:10072000E62FB901CA01EA3044F5E05DD801EE9345
:100730008D01232B242B252B79F790E080E0109757
:1007400069F0FD0101900020E9F73197AF014A1BE4
:100750005B0BBD018CEC91E00E940A01A1960FB6E3
:10076000F894DEBF0FBECDBFDF91CF911F910F91E7
:10077000BF90AF909F908F900895E95CD7CF42E0F3
:1007800050E066E271E08CEC91E00C940A01CF93AA
:10079000DF930E94F701EC010E94BF038C0F9D1FA5
:1007A000DF91CF910895CF92DF92EF92FF92CF9396
:1007B000DF936C01990FEE08FF08F7FE19C06DE298
:1007C0008CEC91E00E94AA01EC0166277727CB010F
:1007D0006C197D098E099F094AE00E9471038C0FF4
:1007E0009D1FDF91CF91FF90EF90DF90CF90089504
:1007F0004AE0C701B601DF91CF91FF90EF90DF9003
:10080000CF900C947103EF92FF920F931F93CF93AD
:10081000DF9389E692E00E942F038C01892B09F077
:10082000BDC083E08093000110922A0180E00E9405
:100830005B02892B29F080912A01816080932A0133
:1008400081E00E945B02892B29F080912A0182605D
:1008500080932A0182E00E945B02892B29F080911B
:100860002A01846080932A0183E00E945B02892B25
:1008700029F080912A01886080932A0184E00E94F7
:100880005B02892B29F080912A01806180932A01E3
:1008900085E00E945B02892B29F080912A01806209
:1008A00080932A0186E00E945B02892B29F08091C7
:1008B0002A01806480932A0187E00E945B02892BD1
:1008C00029F080912A01806880932A0110922B01DF
:1008D00088E00E945B02892B29F080912B018160C6
:1008E00080932B0189E00E945B02892B29F0809183
:1008F0002B01826080932B018AE00E945B02892B8E
:1009000029F080912B01846080932B018BE00E9461
:100910005B02892B29F080912B01886080932B0149
:100920008CE00E945B02892B29F080912B01806171
:1009300080932B018DE00E945B02892B29F080912E
:100940002B01806280932B018EE00E945B02892B39
:1009500029F080912B01806480932B018FE00E940D
:100960005B02892B29F080912B01806880932B01F9
:1009700010922C0180E10E945B02892B29F080916A
:100980002C01816080932C0181E10E945B02892B04
:1009900029F080912C01826080932C01C801089776
:1009A000089758F58091010120E4829FC00111242D
:1009B00007701127802B80937C0080917A008064DF
:1009C00080937A0080917A0086FDFCCF9091780028
:1009D0008091790089279827892722E020930001B8
:1009E00080932A01892F837080932B01DF91CF910F
:1009F0001F910F91FF90EF90089589E692E00E9479
:100A00002F03EC01F8013297E031F10578F7E55F4B
:100A1000FA4F0C94CB0839051B051B05AC05C60520
:100A2000B905F604F604F604F604F604F604F60432
:100A3000F604D305D90561E00330110509F060E043
:100A40008C2F0E94840284EE90E00E94F701CE0178
:100A50000E94D30389ED90E00330110511F48EED6F
:100A600090E0DF91CF911F910F91FF90EF900C9448
:100A7000C70389E692E00E942F037C0189E692E099
:100A80000E942F0300E0182F0E211F2161E08C2F00
:100A90000E94B2020115110511F460E010C0FE01C0
:100AA000FF27E15DFE4FE491E330E1F160F4E130D6
:100AB000D1F0E23091F161E00038110574F38C2F30
:100AC0000E94840214C0E730B9F1E830E9F1E43063
:100AD00091F78091800080628093800010938B005A
:100AE00000938A0004C084B5806884BD17BC84ED7F
:100AF00090E00E94F701CE010E94D30385EC90E0C4
:100B00000E94F701C8010E94D303DF91CF911F918A
:100B10000F91FF90EF900C94BF0384B5806284BD69
:100B200018BCE5CF8091800080688093800010938E
:100B3000890000938800DBCF8091B00080688093AB
:100B4000B0001092B300D3CF8091B0008062809348
:100B5000B0001092B400CBCF61E00E94B20280ECF2
:100B600090E00E94F701CE010E94D30388EB90E051
:100B700078CF60E00E94B20283EB90E00E94F70120
:100B8000CE010E94D3038DEA90E06BCF62E00E9419
:100B9000B20288EA90E00E94F701CE010E94D303DE
:100BA0008BE990E05ECF83E08093010181E890E0E3
:100BB00058CF81E08093010188E690E052CF1F92E8
:100BC0000F920FB60F9211242F933F938F939F9301
:100BD000AF93BF938091C8019091C901A091CA01C0
:100BE000B091CB013091C70123E0230F2D3758F589
:100BF0000196A11DB11D2093C7018093C801909358
:100C0000C901A093CA01B093CB018091C301909117
:100C1000C401A091C501B091C6010196A11DB11DED
:100C20008093C3019093C401A093C501B093C60102
:100C3000BF91AF919F918F913F912F910F900FBED8
:100C40000F901F90189526E8230F0296A11DB11D45
:100C5000D2CF1F920F920FB60F9211242F933F9372
:100C60004F935F936F937F938F939F93AF93BF93B4
:100C7000EF93FF938CEC91E00E948801FF91EF913C
:100C8000BF91AF919F918F917F916F915F914F91A4
:100C90003F912F910F900FBE0F901F9018951F92AC
:100CA0000F920FB60F9211242F938F939F93EF9370
:100CB000FF93E091DC01F091DD018081E091E201A0
:100CC000F091E30182FD1BC090818091E5018F5F6F
:100CD0008F732091E601821741F0E091E501F0E089
:100CE000E453FE4F958F8093E501FF91EF919F9123
:100CF0008F912F910F900FBE0F901F9018958081AC
:100D0000F4CF1F920F920FB60F9211242F933F939F
:100D10004F935F936F937F938F939F93AF93BF9303
:100D2000EF93FF938091B900887F803609F44AC021
:100D3000F0F5883209F4A7C018F5803109F49BC09A
:100D4000B8F4882309F4F9C0883009F494C0FF91FD
:100D5000EF91BF91AF919F918F917F916F915F9133
:100D60004F913F912F910F900FBE0F901F901895AC
:100D7000883109F488C0803251F78093900114C003
:100D8000803409F49DC040F48033B9F38833F9F618
:100D90008093900185ECB0C0803509F485C088351A
:100DA00009F496C0883499F60E94EE02D0CF8839B3
:100DB00009F48CC038F5883729F050F4883611F0E2
:100DC000803729F683E08093BA0110928F0157C0D3
:100DD000883809F47BC0803919F0803809F0B7CF22
:100DE00080918F01803208F071C0E0918F0181E025
:100DF0008E0F80938F018091BB00F0E0E159FE4F90
:100E000080833DC0803B39F0E0F4803A09F479C03A
:100E1000883A09F09CCF84E08093BA0110926E0169
:100E200010926D01E091B601F091B70109958091A2
:100E30006D0181110FC081E080936D0110924D0111
:100E400009C0803C09F4A6CF883C09F4A3CF883BB5
:100E500009F07DCFE0916E0181E08E0F80936E01ED
:100E6000F0E0E35BFE4F80818093BB0090916E01C8
:100E700080916D0129C08091B3018093BB0085EC06
:100E80008093BC0064CF9091B2018091B10198171A
:100E900058F5E091B20181E08E0F8093B201F0E04D
:100EA000EF56FE4F8081E9CFE091B20181E08E0FD5
:100EB0008093B2018091BB00F0E0EF56FE4F80833B
:100EC0009091B2018091B1019817C8F285E8D8CF0E
:100ED000E091B20181E08E0F8093B2018091BB005E
:100EE000F0E0EF56FE4F80838091B90181115CCF15
:100EF00081E08093B80184EA8093BC001092BA012B
:100F000026CF85EC8093BC001092BA0180918F01AE
:100F1000803230F4E0918F01F0E0E159FE4F108211
:100F200060918F0170E0E091B401F091B5018FE61E
:100F300091E0099510928F010ACF1092900134CF61
:100F4000ECECF1E01382128288EE93E0A0E0B0E0D6
:100F500084839583A683B78326E031E031832083A1
:100F600025EC30E03587248724EC30E0378726876E
:100F700020EC30E0318B208B21EC30E0338B228B66
:100F800022EC30E0358B248B26EC30E0378B268B3F
:100F9000118E128E138E148EE9E6F2E01382128205
:100FA00084839583A683B78388E191E091838083CE
:100FB0000895789484B5826084BD84B5816084BDD1
:100FC00085B5826085BD85B5816085BD80916E00E7
:100FD000816080936E001092810080918100826018
:100FE0008093810080918100816080938100809155
:100FF00080008160809380008091B1008460809344
:10100000B1008091B00081608093B00080917A003F
:10101000846080937A0080917A00826080937A0065
:1010200080917A00816080937A0080917A00806854
:1010300080937A001092C100E091DC01F091DD0113
:1010400082E08083E091D801F091D9011082E09193
:10105000DA01F091DB018FEC80831092E401E091E2
:10106000E001F091E10186E08083E091DE01F09102
:10107000DF01808180618083E091DE01F091DF01FA
:10108000808188608083E091DE01F091DF018081C2
:1010900080688083E091DE01F091DF0180818F7DA7
:1010A00080838BE491E00E94C70383E08093010179
:1010B0001092BE011092BD011092BC011092BB01B2
:1010C0001092BA0181E08093B9011092B80161E0F9
:1010D00082E10E94840261E083E10E9484028091A7
:1010E000B9008E7F8093B9008091B9008D7F809385
:1010F000B90088E48093B80085E48093BC0084ED57
:1011000090E09093B7018093B60180EE90E09093C9
:10111000B5018093B40180E18093BA0084E593E047
:101120009093C0018093BF0183E094E09093C2014B
:101130008093C10183E491E00E94C703C0E0D0E046
:101140002097F1F30E9474018823D1F30E940000DC
:10115000F7CFA1E21A2EAA1BBB1BFD010DC0AA1FCF
:10116000BB1FEE1FFF1FA217B307E407F50720F010
:10117000A21BB30BE40BF50B661F771F881F991F8B
:101180001A9469F760957095809590959B01AC01D4
:10119000BD01CF010895EE0FFF1F0590F491E02DE2
:0611A0000994F894FFCF52
:1011A600010100000000AA010A01370112026801CC
:1011B60046015A01000000005D0349036E031F0348
:0A11C60042032F0320030D0A00006E
:107800000C94343C0C94513C0C94513C0C94513CE1
:107810000C94513C0C94513C0C94513C0C94513CB4
:107820000C94513C0C94513C0C94513C0C94513CA4
:107830000C94513C0C94513C0C94513C0C94513C94
:107840000C94513C0C94513C0C94513C0C94513C84
:107850000C94513C0C94513C0C94513C0C94513C74
:107860000C94513C0C94513C11241FBECFEFD8E036
:10787000DEBFCDBF11E0A0E0B1E0ECE9FFE702C060
:1078800005900D92A230B107D9F712E0A2E0B1E065
:1078900001C01D92AD30B107E1F70E942D3D0C945F
:1078A000CC3F0C94003C982F959595959595959582
:1078B000905D8F708A307CF0282F295A8091C0000B
:1078C00085FFFCCF9093C6008091C00085FFFCCF60
:1078D0002093C6000895282F205DF0CF982F809127
:1078E000C00085FFFCCF9093C6000895EF92FF92F1
:1078F0000F931F93EE24FF2487018091C00087FD22
:1079000017C00894E11CF11C011D111D81E4E8164B
:1079100082E4F8068FE0080780E0180770F3E09132
:107920000401F091050109958091C00087FFE9CF1E
:107930008091C6001F910F91FF90EF9008950E94D3
:10794000763C982F8091C00085FFFCCF9093C600B5
:1079500091362CF490330CF09053892F089597555D
:10796000892F08951F930E949F3C182F0E949F3CCF
:107970001295107F810F1F9108951F93182F882350
:1079800021F00E94763C1150E1F71F9108951F935A
:10799000182F0E94763C803249F0809103018F5F5E
:1079A000809303018530C1F01F9108958091C0003C
:1079B00085FFFCCF84E18093C6008091C00085FFE5
:1079C000FCCF1093C6008091C00085FFFCCF80E102
:1079D0008093C6001F910895E0910401F091050184
:1079E00009951F9108950E94763C803241F0809164
:1079F00003018F5F80930301853081F008958091AA
:107A0000C00085FFFCCF84E18093C6008091C00058
:107A100085FFFCCF80E18093C6000895E0910401CA
:107A2000F09105010995089540E951E08823A1F0FE
:107A30002D9A28EE33E0FA013197F1F721503040CA
:107A4000D1F72D9828EE33E0FA013197F1F7215064
:107A50003040D1F7815061F708953F924F925F9285
:107A60006F927F928F929F92AF92BF92CF92DF924E
:107A7000EF92FF920F931F93CF93DF93000080E16B
:107A80008093C4001092C50088E18093C10086E015
:107A90008093C2005098589A259A81E00E94143D24
:107AA00024E1F22E9EE1E92E85E9D82E0FE0C02ECA
:107AB00010E1B12EAA24A394B1E49B2EA6E58A2E50
:107AC000F2E57F2EE0E26E2E79E4572E63E5462E36
:107AD00050E5352E0E94763C8033B1F18133B9F107
:107AE000803409F46FC0813409F476C0823409F41B
:107AF00085C0853409F488C0803531F1823521F1A3
:107B0000813511F1853509F485C0863509F48DC0BC
:107B1000843609F496C0843709F403C1853709F423
:107B200072C1863709F466C0809103018F5F80932C
:107B30000301853079F6E0910401F0910501099582
:107B40000E94763C803351F60E94F33CC3CF0E94E2
:107B5000763C803249F78091C00085FFFCCFF092DF
:107B6000C6008091C00085FFFCCF9092C600809136
:107B7000C00085FFFCCF8092C6008091C00085FFC9
:107B8000FCCF7092C6008091C00085FFFCCF609250
:107B9000C6008091C00085FFFCCF5092C600809146
:107BA000C00085FFFCCF4092C6008091C00085FFD9
:107BB000FCCF3092C6008091C00085FFFCCFB09210
:107BC000C60088CF0E94763C863808F4BDCF0E945C
:107BD000763C0E94F33C7ECF0E94763C803809F4CC
:107BE0009CC0813809F40BC1823809F43CC1883942
:107BF00009F48FC080E00E94C73C6CCF84E10E94F2
:107C0000BD3C0E94F33C66CF85E00E94BD3C0E94D3
:107C1000F33C60CF0E94763C809306010E94763C44
:107C2000809307010E94F33C55CF0E94763C80333D
:107C300009F41DC183E00E94BD3C80E00E94C73C66
:107C400049CF0E94763C809309020E94763C809343
:107C5000080280910C028E7F80930C020E94763C79
:107C6000853409F415C18091080290910902892B8D
:107C700089F000E010E00E94763CF801E85FFE4FDA
:107C800080830F5F1F4F80910802909109020817AF
:107C9000190788F30E94763C803209F045CF809125
:107CA0000C0280FF01C16091060170910701660F0F
:107CB000771F7093070160930601A0910802B091AD
:107CC00009021097C9F0E8E0F1E09B01AD014E0F09
:107CD0005F1FF999FECF32BD21BD819180BDFA9A17
:107CE000F99A2F5F3F4FE417F50799F76A0F7B1F4B
:107CF00070930701609306018091C00085FFFCCF5F
:107D0000F092C6008091C00085FFFCCFB092C60003
:107D1000E1CE83E00E94C73CDDCE82E00E94C73CFA
:107D2000D9CE0E94763C809309020E94763C8093D3
:107D300008028091060190910701880F991F909386
:107D40000701809306010E94763C853409F4A6C0A1
:107D500080910C028E7F80930C020E94763C8032D0
:107D600009F0B8CE8091C00085FFFCCFF092C6002C
:107D7000609108027091090261157105B9F140E046
:107D800050E080910C02A82FA170B82FB27011C0E2
:107D9000BB2309F45CC0E0910601F0910701319624
:107DA000F0930701E09306014F5F5F4F46175707B7
:107DB000E8F4AA2369F3F999FECF209106013091E6
:107DC000070132BD21BDF89A90B58091C00085FFB2
:107DD000FCCF9093C6002F5F3F4F30930701209355
:107DE00006014F5F5F4F4617570718F38091C00099
:107DF00085FDE5CE8091C00085FFF8CFE0CE81E023
:107E00000E94C73C67CE0E94763C803209F08CCE3F
:107E10008091C00085FFFCCFF092C6008091C00029
:107E200085FFFCCFE092C6008091C00085FFFCCFAB
:107E3000D092C6008091C00085FFFCCFC092C600E2
:107E40008091C00085FFFCCFB092C60043CEE09188
:107E50000601F091070194918091C00085FFFCCF4D
:107E60009093C6009CCF80E10E94C73C33CE0E9415
:107E7000763C0E94763C182F0E94763C112309F430
:107E800083C0113009F484C08FE00E94C73C22CE29
:107E900080910C02816080930C02E5CE80910C02EF
:107EA000816080930C0259CF809107018823880F4D
:107EB000880B8A2180930B02809106019091070123
:107EC000880F991F90930701809306018091080203
:107ED00080FF09C080910802909109020196909359
:107EE000090280930802F894F999FECF1127E091D6
:107EF0000601F0910701C8E0D1E08091080290915D
:107F00000902103091F40091570001700130D9F34B
:107F100003E000935700E89500915700017001308D
:107F2000D9F301E100935700E89509901990009169
:107F3000570001700130D9F301E000935700E89534
:107F40001395103498F011270091570001700130FB
:107F5000D9F305E000935700E895009157000170B0
:107F60000130D9F301E100935700E895329602976A
:107F700009F0C7CF103011F00296E5CF112480919F
:107F8000C00085FFB9CEBCCE8EE10E94C73CA2CD19
:0C7F900085E90E94C73C9ECDF894FFCF0D
:027F9C00800063
:040000030000780081
:00000001FF
